:100000000C9472000C9493000C9493000C94930045
:100010000C9493000C9457020C9432020C949300AD
:100020000C9493000C9493000C9493000C94930004
:100030000C9493000C9493000C9493000C949300F4
:100040000C9493000C9493000C9493000C949300E4
:100050000C9493000C9493000C9493000C949300D4
:100060000C9493000C9493000C9493000C949300C4
:100070000C9493000C9493000C9493000C949300B4
:100080000C9493000C9493000C9493000C949300A4
:100090000C9493000C9493000C9493000C94930094
:1000A0000C9493000C9493000C9493000C94930084
:1000B0000C9493000C9493000C9493000C94930074
:1000C0000C9493000C9493000C9493000C94D7061A
:1000D0000C9493000C9493000C9493000C94930054
:1000E0000C94930011241FBECFEFD1E2DEBFCDBF31
:1000F00000E00CBF12E0A0E0B2E0E6EFFAE100E0C1
:100100000BBF02C007900D92A833B107D9F712E0D8
:10011000A8E3B2E001C01D92A53AB107E1F70E9441
:100120006E0A0C94790D0C940000259A2D9A08956E
:10013000269A2E9A0895279A2F9A089586E69EE089
:100140000197F1F700004098419880E388B9429AFE
:10015000EFEFF7E43197F1F700C000004298E6E6D0
:10016000FEE03197F1F700004098419888B9429A33
:10017000EFEFF7E43197F1F700C000004298E6E6B0
:10018000FEE03197F1F700004098419888B9429A13
:100190008FEF97E40197F1F700C000004298E6E680
:1001A000FEE03197F1F700004098419880E288B96D
:1001B000429A8FEF97E40197F1F700C00000429850
:1001C000089598B19F7098B998B1282F207F922BED
:1001D00098B940984198429AEFEFF7E43197F1F7D8
:1001E00000C00000429898B19F7098B998B182956C
:1001F000807F892B88B940984198429A8FEF97E485
:100200000197F1F700C000004298089586E69EE04D
:100210000197F1F7000088E20E94E10081E00E946E
:10022000E10086E00E94E1008EE00E94E10080E8AB
:100230000E94E100089598B19F7098B998B1282F55
:10024000207F922B98B9409A4198429AEFEFF7E4B9
:100250003197F1F700C00000429898B19F7098B9AB
:1002600098B18295807F892B88B9409A4198429AAB
:100270008FEF97E40197F1F700C0000042980895CE
:1002800080E80E94E1000895CF93DF93EC0188811C
:10029000882331F021960E941B0189918823D9F788
:1002A000DF91CF910895823079F0833018F4813056
:1002B000C9F405C0833069F08430A1F40FC0862FE3
:1002C00081580E94E1000895862F81540E94E10028
:1002D0000895862F8D560E94E1000895862F8D5235
:1002E0000E94E10008950F931F93CF93DF938A013B
:1002F000E901882311F0662319F40E94400102C02D
:100300000E945301C530D10571F4C80160E177E264
:100310000E94650DCB01C096909374028093730286
:100320000E941B0103C0C430D105B9F4C80168EEB6
:1003300073E00E94650DCB0170937E0260937D0295
:100340006AE070E00E94650DC09690939E028093D3
:100350009D020E941B0181E001C080E0C330D105F5
:1003600011F08130B1F4C80164E670E00E94650DBF
:10037000CB0170937E0260937D026AE070E00E9480
:10038000650DC09690939602809395020E941B0182
:1003900081E0C230D10511F08130B1F42AE030E0C3
:1003A000C801B9010E94650DCB0170937E02609374
:1003B0007D02B9010E94650DC09690938A028093D8
:1003C00089020E941B0181E0C130D10511F081300A
:1003D00061F4C8016AE070E00E94650DC0969093D8
:1003E0009C0280939B020E941B01C630D1051CF029
:1003F00085E40E941B01DF91CF911F910F91089519
:10040000CF93DF9380E80E94E100C0E0D2E0CE010C
:100410000E94440180EC0E94E100CE010E94440150
:100420000E944001DF91CF9108956C98749A0895CD
:100430006D98759A08950E9415020E9418020895F9
:10044000F894EAE6F0E0808182608083EC9A789408
:100450000895F894EAE6F0E0808188608083ED9A60
:10046000789408951F920F920FB60F9211248F93D4
:100470009F93AF93BF938091380290913902A091DE
:100480003A02B0913B020196A11DB11D8093380242
:1004900090933902A0933A02B0933B02BF91AF917F
:1004A0009F918F910F900FBE0F901F9018951F92E4
:1004B0000F920FB60F9211248F939F93AF93BF9318
:1004C00080913C0290913D02A0913E02B0913F028A
:1004D0000196A11DB11D80933C0290933D02A09313
:1004E0003E02B0933F02BF91AF919F918F910F90C9
:1004F0000FBE0F901F9018950F931F93CF93BC01C1
:1005000080E090E00E94AF0C28E431EE42E850E435
:100510000E941B0C0E94830CDC01CB01A0E0B0E028
:10052000109238021092390210923A0210923B0255
:1005300010923C0210923D0210923E0210923F0235
:10054000F1E0C0E0409138025091390260913A02E6
:1005500070913B0200913C0210913D0220913E02BD
:1005600030913F02EF2F481759076A077B0708F4BD
:10057000EC2FEE2349F44F2F081719072A073B07E2
:1005800008F44C2F4423F1F20E947206CF911F9180
:100590000F910895BC0180E090E00E94AF0C25EE21
:1005A00030ED4AEA50E40E941B0C0E94830C462F57
:1005B000572F682F792F109238021092390210921B
:1005C0003A0210923B028091380290913902A09138
:1005D0003A02B0913B02481759076A077B0798F720
:1005E0000E94720608950E9495000E9498000E9441
:1005F0009B00089510928900682F70E080E090E0E1
:100600000E94AF0C2BE734E14EEE5FE30E941B0C1F
:1006100020E030E04CE052E40E94B30B0E94830CD7
:1006200060938800089510928B00682F70E080E03E
:1006300090E00E94AF0C2BE734E14EEE5FE30E94A6
:100640001B0C20E030E04CE052E40E94B30B0E940F
:10065000830C60938A00089510928D00682F70E0DB
:1006600080E090E00E94AF0C2BE734E14EEE5FE3B8
:100670000E941B0C20E030E04CE052E40E94B30BDF
:100680000E94830C60938C00089583E0809389001E
:100690008FEF80938800089583E080938B008FEF25
:1006A00080938A00089583E080938D008FEF80937C
:1006B0008C0008958F929F92AF92BF92DF92EF923B
:1006C000FF920F931F93CF93DF93C82F70E080E0CA
:1006D00090E00E94AF0C2BE734E14EEE5FE30E9406
:1006E0001B0C20E030E04CE052E40E94B30B062FDC
:1006F000A72E882ED62EE72EF82ED92F6C2F70E03D
:1007000080E090E00E94AF0C2BE734E14EEE5FE317
:100710000E941B0C20E030E04CE052E40E94B30B3E
:100720000E94830CC62F70E080E090E00E94B10C24
:100730001A2D282D3D2FA90198010E94610D8823B3
:1007400034F10F2EF9E8AF2EBB24F02D0F2EF8E870
:100750008F2E9924F02DD5011C92F401C08386E6DA
:1007600096EEA0E081509040A040E1F7C1506C2F80
:1007700070E080E090E00E94B10C0D2D1E2D2F2D19
:100780003D2FA90198010E94610D882324F7DF9174
:10079000CF911F910F91FF90EF90DF90BF90AF909E
:1007A0009F908F9008958F929F92AF92BF92DF9209
:1007B000EF92FF920F931F93CF93DF93C82F70E0B8
:1007C00080E090E00E94AF0C2BE734E14EEE5FE357
:1007D0000E941B0C20E030E04CE052E40E94B30B7E
:1007E000062FA72E882ED62EE72EF82ED92F6C2F67
:1007F00070E080E090E00E94AF0C2BE734E14EEE19
:100800005FE30E941B0C20E030E04CE052E40E94C9
:10081000B30B0E94830CC62F70E080E090E00E9432
:10082000B10C1A2D282D3D2FA90198010E94170CFB
:10083000181634F10F2EF9E8AF2EBB24F02D0F2E31
:10084000F8E88F2E9924F02DD5011C92F401C08375
:1008500086E696EEA0E081509040A040E1F7CF5FA1
:100860006C2F70E080E090E00E94B10C0D2D1E2DE9
:100870002F2D3D2FA90198010E94170C181624F75F
:10088000DF91CF911F910F91FF90EF90DF90BF907C
:10089000AF909F908F9008958F929F92AF92BF924A
:1008A000DF92EF92FF920F931F93CF93DF93C82FA6
:1008B00070E080E090E00E94AF0C2BE734E14EEE58
:1008C0005FE30E941B0C20E030E04CE052E40E9409
:1008D000B30B062FA72E882ED62EE72EF82ED92F53
:1008E0006C2F70E080E090E00E94AF0C2BE734E1C9
:1008F0004EEE5FE30E941B0C20E030E04CE052E43F
:100900000E94B30B0E94830CC62F70E080E090E041
:100910000E94B10C1A2D282D3D2FA90198010E948B
:10092000610D882334F10F2EFBE8AF2EBB24F02D90
:100930000F2EFAE88F2E9924F02DD5011C92F40188
:10094000C08386E696EEA0E081509040A040E1F79B
:10095000C1506C2F70E080E090E00E94B10C0D2D32
:100960001E2D2F2D3D2FA90198010E94610D882376
:1009700024F7DF91CF911F910F91FF90EF90DF90BF
:10098000BF90AF909F908F9008958F929F92AF925B
:10099000BF92DF92EF92FF920F931F93CF93DF935B
:1009A000C82F70E080E090E00E94AF0C2BE734E1AC
:1009B0004EEE5FE30E941B0C20E030E04CE052E47E
:1009C0000E94B30B062FA72E882ED62EE72EF82EC8
:1009D000D92F6C2F70E080E090E00E94AF0C2BE7E5
:1009E00034E14EEE5FE30E941B0C20E030E04CE06F
:1009F00052E40E94B30B0E94830CC62F70E080E08B
:100A000090E00E94B10C1A2D282D3D2FA9019801CC
:100A10000E94170C181634F10F2EFBE8AF2EBB24E2
:100A2000F02D0F2EFAE88F2E9924F02DD5011C926F
:100A3000F401C08386E696EEA0E081509040A0408D
:100A4000E1F7CF5F6C2F70E080E090E00E94B10C86
:100A50000D2D1E2D2F2D3D2FA90198010E94170C41
:100A6000181624F7DF91CF911F910F91FF90EF900F
:100A7000DF90BF90AF909F908F90089581B18F606D
:100A800081B982B1807F82B9EAE0F1E0808188613A
:100A90008083EBE0F1E0808188618083089584B1F8
:100AA000876084B985B1876085B9089587B1876FFC
:100AB00087B988B1807888B908953B9A439808959A
:100AC00010BA11BA10920701109208010895EAE0D5
:100AD000F1E0808188618083EBE0F1E080818861D2
:100AE000808308950E943E050E9495000E94980010
:100AF0000E949B000E944F050E9456050E945D05C2
:100B00000E9415020E9418020E9460050E9467055B
:100B10000E941B020895E1E2F1E010828FEF8093C2
:100B2000250191E0909324011092290180932801DE
:100B300010922B0180932A0110922D0180932C0199
:100B400089EA809320018BE080830895E1E8F0E05A
:100B500010828CEF8093850081E08093840093E085
:100B6000909389008FEF8093880090938B008093FF
:100B70008A0010928D0010928C0083EA809380008E
:100B8000109282008CE080830895E1EDF0E0108205
:100B90001092D00086E08093D2001092D50087E0BA
:100BA0008093D40088E98083089583E58CBD1DBCC3
:100BB0001EBC0895EAE7F0E0108210927B0080E20C
:100BC00080937C0080E880BF86E880830895883029
:100BD00018F098E090937B008770806280937C008F
:100BE00010926E02EAE7F0E0808180648083808169
:100BF00084FFFDCF80917900EAE7F0E09081906179
:100C0000908310927B00089528988EBD0DB407FE46
:100C1000FDCF86E69EE00197F1F7000080E58EBDEE
:100C20000DB407FEFDCF8EB5289A089583E00E948B
:100C3000E70580936F0282E00E94E70580937902C6
:100C400081E00E94E7058093780284E00E94E70536
:100C50008093880285E00E94E7058093720286E017
:100C60000E94E70580937C0287E00E94E70580935D
:100C70008B0288E00E94E70580936D0285E00E9468
:100C800004068093A40286E00E94040680939002EA
:100C900087E00E94040680937F0289E00E94E705B6
:100CA0008093A1028AE00E94E70580939A028BE07C
:100CB0000E94E70580936C028CE00E94E705809318
:100CC0008E028DE00E94E7058093820280E00E9400
:100CD000E70580938F02089592B1907F8F70982BD3
:100CE00092B9089580E00E946C06089586E00E9403
:100CF0006C06089589E00E946C06089585E00E94C4
:100D00006C0608958AE00E946C060895439A08953F
:100D1000439808958093280160932A010895CF9302
:100D2000DF93EC010E947606CE010E94CA02DF9199
:100D3000CF910895CF93DF93EC010E947A06CE0104
:100D40000E94CA02DF91CF910895CF93DF93EC0107
:100D50000E947E06CE010E947C02DF91CF91089511
:100D6000CF93DF93EC010E948206CE010E947C02A9
:100D7000DF91CF910895F8940E9472050E94C505F5
:100D80000E94DA050E94A6050E948B050E949E0023
:100D90000E9406010E94D5050E9420020E9429029D
:100DA0008AE080936A0080E38DBB789408951F9257
:100DB0000F920FB60F920BB60F9211242F933F9301
:100DC0004F935F936F937F938F939F93AF93BF9353
:100DD000CF93DF93EF93FF93C091D600809166028B
:100DE000909167028130910579F5C09377028091E7
:100DF0003502909136028130910569F4C0937A02F0
:100E0000809135029091360201969093360280933C
:100E10003502C0E019C080913502909136028230CF
:100E2000910591F4C09387021092670210926602B6
:100E300081E090E0909336028093350280917A02AF
:100E40006C2F0E948A06C0E0809164029091650236
:100E50008130910509F042C0C0937702809133023E
:100E6000909134028130910579F4C09393021092ED
:100E7000940280913302909134020196909334024F
:100E800080933302C0E02AC08091330290913402F3
:100E90008230910519F58C2F90E090938402809315
:100EA00083022091930230919402D22FCC27C21B4F
:100EB000D30B8C0F9D1F909369028093680281E091
:100EC00090E0909334028093330290936302809376
:100ED00062021092650210926402C0E0809160028A
:100EE000909161028130910509F042C0C093770270
:100EF00080913302909134028130910579F4C0934E
:100F000093021092940280913302909134020196E0
:100F10009093340280933302C0E02AC08091330260
:100F2000909134028230910519F58C2F90E09093C6
:100F30008402809383022091930230919402D22FF5
:100F4000CC27C21BD30B8C0F9D1F909369028093FB
:100F5000680281E090E09093340280933302909392
:100F60005F0280935E021092610210926002C0E004
:100F700080915C0290915D028130910509F041C041
:100F8000C0937702809131029091320281309105B5
:100F900079F4C0938C0210928D028091310290916D
:100FA000320201969093320280933102C0E029C050
:100FB00080913102909132028230910511F54C2FCF
:100FC00050E05093A00240939F0280918C02909138
:100FD0008D02382F2227281B390B420F531F5093A5
:100FE0006B0240936A0281E090E09093320280931A
:100FF000310290935B0280935A0210925D0210922C
:101000005C0280915802909159028130910509F05B
:1010100041C0C093770280913102909132028130B9
:10102000910579F4C0938C0210928D028091310267
:101030009091320201969093320280933102C0E087
:1010400029C080913102909132028230910511F5D0
:101050004C2F50E05093A00240939F0280918C024D
:1010600090918D02382F2227281B390B420F531FD6
:1010700050936B0240936A0281E090E090933202B9
:101080008093310290935702809356021092590236
:10109000109258028091540290915502813091052E
:1010A00069F4C093770281E090E0909330028093DE
:1010B0002F021092550210925402C0E08091520209
:1010C000909153028130910569F4C093770281E0D9
:1010D00090E090932E0280932D0210925302109272
:1010E0005202C0E0809150029091510281309105EE
:1010F00069F4C093770281E090E090932C02809392
:101100002B021092510210925002C0E080914E02C8
:1011100090914F028130910509F046C0C09377024B
:101120008091290290912A028130910581F4D0E0CA
:10113000D0934302C09342028091290290912A02E7
:10114000019690932A0280932902C0E02DC08091DD
:10115000290290912A028230910581F48C2F90E02F
:1011600090934102809340028091290290912A023B
:10117000019690932A028093290216C08091290239
:1011800090912A028330910579F481E090E0909368
:101190004D0280934C0290932A0280932902109270
:1011A0004F0210924E02C0E080914A0290914B0291
:1011B0008130910571F4C093770281E090E09093C3
:1011C00049028093480210924B0210924A02C0E0FA
:1011D0000AC0C83319F40E9476060AC0C23319F453
:1011E0000E947A060AC0C43319F40E9482060AC01B
:1011F000C63319F40E947E06EBC0C53319F40E9471
:101200007206EDC0C43509F0E3C088ED8093D100CB
:1012100089E58093D600E0EDF0E0808186FFFDCF88
:10122000809188028093D600E0EDF0E080818064B8
:101230008083808186FFFDCF809172028093D600EB
:10124000E0EDF0E0808180648083808186FFFDCFC7
:1012500080917C028093D600E0EDF0E08081806494
:101260008083808186FFFDCF80918B028093D600A2
:10127000E0EDF0E0808180648083808186FFFDCF97
:1012800080916D028093D600E0EDF0E08081806473
:101290008083808186FFFDCF8091A4028093D60059
:1012A000E0EDF0E0808180648083808186FFFDCF67
:1012B000809190028093D600E0EDF0E08081806420
:1012C0008083808186FFFDCF80917F028093D6004E
:1012D000E0EDF0E0808180648083808186FFFDCF37
:1012E0008091A1028093D600E0EDF0E080818064DF
:1012F0008083808186FFFDCF80919A028093D60003
:10130000E0EDF0E0808180648083808186FFFDCF06
:1013100080916C028093D600E0EDF0E080818064E3
:101320008083808186FFFDCF80918E028093D600DE
:10133000E0EDF0E0808180648083808186FFFDCFD6
:10134000809182028093D600E0EDF0E0808180649D
:101350008083808186FFFDCF80916F028093D600CD
:10136000E0EDF0E0808180648083808186FFFDCFA6
:10137000809179028093D600E0EDF0E08081806476
:101380008083808186FFFDCF809178028093D60094
:10139000E0EDF0E0808180648083808186FFFDCF76
:1013A00080918F028093D600E0EDF0E08081806430
:1013B0008083808186FFFDCF8AE58093D600E0EDB3
:1013C000F0E080818064808388E98093D1000CC044
:1013D000CB3629F4809137028093D6000AC0C733F8
:1013E00019F40E9486060EC0C93319F40E948806BB
:1013F00010C0C23539F481E090E090936702809389
:10140000660210C0C33529F48FEF6FEF0E948A0681
:1014100012C0C53539F481E090E090936502809365
:10142000640212C0C63539F481E090E09093610205
:101430008093600212C0C73539F481E090E0909348
:101440005D0280935C0212C0C83539F481E090E0FF
:10145000909359028093580212C0C03839F481E049
:1014600090E0909355028093540212C0C13839F431
:1014700081E090E0909353028093520212C0C238F0
:1014800039F481E090E0909351028093500211C0B2
:10149000C33839F481E090E090934F0280934E027C
:1014A00008C0C43831F481E090E090934B028093FF
:1014B0004A02FF91EF91DF91CF91BF91AF919F9140
:1014C0008F917F916F915F914F913F912F910F90ED
:1014D0000BBE0F900FBE0F901F9018950E94BB0679
:1014E0008FEF80930401C5E0D1E08091620290917A
:1014F00063028130910551F48091680290916902F4
:101500000E948F06109263021092620280915E0226
:1015100090915F028130910551F480916802909121
:1015200069020E949A0610925F0210925E028091F8
:101530005A0290915B028130910551F480916A02C8
:1015400090916B020E94B00610925B0210925A02B8
:1015500080915602909157028130910551F480910B
:101560006A0290916B020E94A50610925702109297
:10157000560280912F029091300281309105D1F571
:101580008091770290E090934502809344021092FC
:10159000980210929702809144029091450280E057
:1015A00090E00E94FA0289E999E5A1E0815090401B
:1015B000A040E1F700008091970290919802019677
:1015C00090939802809397022091440230914502B3
:1015D0002817390730F78FEF9FEFACE2815090402A
:1015E000A040E1F700C000000E94450310923002C5
:1015F00010922F0280912D0290912E028130910540
:10160000D1F58091770290E0909345028093440257
:101610001092980210929702809144029091450294
:1016200080E090E00E94130389E999E5A1E08150F0
:101630009040A040E1F700008091970290919802BD
:1016400001969093980280939702209144023091E2
:1016500045022817390730F78FEF9FEFACE2815032
:101660009040A040E1F700C000000E944C0310929F
:101670002E0210922D0280912B0290912C0281302B
:101680009105D1F58091770290E090934502809387
:101690004402109298021092970280914402909115
:1016A000450280E090E00E942C0389E999E5A1E0E1
:1016B00081509040A040E1F7000080919702909106
:1016C0009802019690939802809397022091440289
:1016D000309145022817390730F78FEF9FEFACE2C2
:1016E00081509040A040E1F700C000000E945303E9
:1016F00010922C0210922B0280914C0290914D027C
:1017000081309105A1F40E940002809142029091E3
:10171000430260914002709141020E945301809106
:1017200077020E941B0110924D0210924C02809190
:101730004802909149028130910589F480917702A5
:1017400088838FEF9FEFA9E581509040A040E1F79B
:1017500000C00000188210924902109248020E94B4
:101760001606C3CE5058BB27AA270ED070C161D130
:1017700030F066D120F031F49F3F11F41EF456C1D1
:101780000EF4E095E7FB4CC1E92F72D180F3BA1754
:10179000620773078407950718F071F49EF58AC1F4
:1017A0000EF4E0950B2EBA2FA02D0B01B90190017C
:1017B0000C01CA01A0011124FF27591B99F0593FC0
:1017C00050F4503E68F11A16F040A22F232F342F08
:1017D0004427585FF3CF469537952795A795F04056
:1017E0005395C9F77EF41F16BA0B620B730B840B6B
:1017F000BAF09150A1F0FF0FBB1F661F771F881F23
:10180000C2F70EC0BA0F621F731F841F48F487957A
:1018100077956795B795F7959E3F08F0B3CF939569
:10182000880F08F09927EE0F979587950895D4D0E3
:1018300008F481E008950CD00AC102D140F0F9D03B
:1018400030F021F45F3F19F0EBC0511134C1EEC00C
:101850000FD198F39923C9F35523B1F3951B550B79
:10186000BB27AA2762177307840738F09F5F5F4F73
:10187000220F331F441FAA1FA9F333D00E2E3AF0B4
:10188000E0E830D091505040E695001CCAF729D0CE
:10189000FE2F27D0660F771F881FBB1F261737071D
:1018A0004807AB07B0E809F0BB0B802DBF01FF274D
:1018B00093585F4F2AF09E3F510568F0B1C0FBC0BE
:1018C0005F3FECF3983EDCF3869577956795B79587
:1018D000F7959F5FC9F7880F911D9695879597F9A2
:1018E0000895E1E0660F771F881FBB1F621773071B
:1018F0008407BA0720F0621B730B840BBA0BEE1F30
:1019000088F7E0950895BCD088F09F5790F0B92FE4
:101910009927B751A0F0D1F0660F771F881F991F44
:101920001AF0BA95C9F712C0B13081F0C3D0B1E056
:101930000895C0C0672F782F8827B85F39F0B93F66
:10194000CCF3869577956795B395D9F73EF4909546
:101950008095709561957F4F8F4F9F4F0895E894C4
:1019600009C097FB3EF490958095709561957F4FE7
:101970008F4F9F4F9923A9F0F92F96E9BB27939595
:10198000F695879577956795B795F111F8CFFAF4A5
:10199000BB0F11F460FF1BC06F5F7F4F8F4F9F4FD6
:1019A00016C0882311F096E911C0772321F09EE834
:1019B000872F762F05C0662371F096E8862F70E09A
:1019C00060E02AF09A95660F771F881FDAF7880F74
:1019D0009695879597F90895990F0008550FAA0BCA
:1019E000E0E8FEEF16161706E807F907C0F0121632
:1019F0001306E407F50798F0621B730B840B950B35
:101A000039F40A2661F0232B242B252B21F4089589
:101A10000A2609F4A140A6958FEF811D811D089526
:101A200097F99F6780E870E060E008959FEF80EC91
:101A3000089500240A941616170618060906089534
:101A400000240A9412161306140605060895092E9A
:101A50000394000C11F4882352F0BB0F40F4BF2B09
:101A600011F460FF04C06F5F7F4F8F4F9F4F089549
:101A700057FD9058440F551F59F05F3F71F047953F
:101A8000880F97FB991F61F09F3F79F08795089524
:101A9000121613061406551FF2CF4695F1DF08C043
:101AA000161617061806991FF1CF86957105610560
:101AB00008940895E894BB2766277727CB0197F908
:101AC00008958ADF08F48FEF0895AA1BBB1B51E12C
:101AD00007C0AA1FBB1FA617B70710F0A61BB70B9E
:101AE000881F991F5A95A9F780959095BC01CD0143
:061AF0000895F894FFCFF9
:101AF60020202020202020202020202020202020E0
:101B060020202020202020202020202020202020CF
:101B160020202020202020200001000100010001BB
:081B26000001000100010005AF
:00000001FF
