:100000000C94B3000C94D4000C94D4000C94D40041
:100010000C94D4000C9417030C9400030C94D4009B
:100020000C94D4000C94D4000C94D4000C94D40000
:100030000C94D4000C94D4000C94D4000C94D400F0
:100040000C94D4000C94D4000C94D4000C94D400E0
:100050000C94D4000C94D4000C94D4000C94D400D0
:100060000C94D4000C94D4000C94D4000C94D400C0
:100070000C94D4000C94D4000C94D4000C94D400B0
:100080000C94D4000C94D4000C94D4000C94D400A0
:100090000C94D4000C94D4000C94D4000C94D40090
:1000A0000C94D4000C94D4000C94D4000C94D40080
:1000B0000C94D4000C94D4000C94D4000C94D40070
:1000C0000C94D4000C94D4000C94D4000C94F2033F
:1000D0000C94D4000C94D4000C94D4000C94D40050
:1000E0000C94D40007634236B79BD8A71A396856D8
:1000F00018AEBAAB558C1D3CB7CC5763BD6DEDFD4A
:10010000753EF6177231BF000000803F0800000006
:10011000BE922449123EABAAAA2ABECDCCCC4C3EFC
:1001200000000080BEABAAAAAA3E00000000BF00EB
:100130000000803F0000000000084178D3BB4387E7
:10014000D1133D190E3CC3BD4282AD2B3E68EC82FB
:1001500076BED98FE1A93E4C80EFFFBE01C4FF7F80
:100160003F000000000011241FBECFEFD1E2DEBF30
:10017000CDBF00E00CBF12E0A0E0B2E0E4E7F3E1A5
:1001800000E00BBF02C007900D92A430B107D9F771
:1001900012E0A4E0B2E001C01D92A534B107E1F77E
:1001A0000E94C8050C94B8090C94000086E69EE0F5
:1001B0000197F1F700004098419880E388B9429A8E
:1001C000EFEFF7E43197F1F700C000004298E6E660
:1001D000FEE03197F1F700004098419888B9429AC3
:1001E000EFEFF7E43197F1F700C000004298E6E640
:1001F000FEE03197F1F700004098419888B9429AA3
:100200008FEF97E40197F1F700C000004298E6E60F
:10021000FEE03197F1F700004098419880E288B9FC
:10022000429A8FEF97E40197F1F700C000004298DF
:10023000089598B19F7098B998B1282F207F922B7C
:1002400098B940984198429AEFEFF7E43197F1F767
:1002500000C00000429898B19F7098B998B18295FB
:10026000807F892B88B940984198429A8FEF97E414
:100270000197F1F700C000004298089586E69EE0DD
:100280000197F1F7000088E20E94190181E00E94C5
:10029000190186E00E9419018EE00E94190180E890
:1002A0000E941901089598B19F7098B998B1282FAC
:1002B000207F922B98B9409A4198429AEFEFF7E449
:1002C0003197F1F700C00000429898B19F7098B93B
:1002D00098B18295807F892B88B9409A4198429A3B
:1002E0008FEF97E40197F1F700C00000429808955E
:1002F00080E80E9419010895CF93DF93EC01888173
:10030000882331F021960E94530189918823D9F7DF
:10031000DF91CF910895823079F0833018F48130E5
:10032000C9F405C0833069F08430A1F40FC0862F72
:1003300081580E9419010895862F81540E94190145
:100340000895862F8D560E9419010895862F8D528B
:100350000E94190108950F931F93CF93DF938A0191
:10036000E901882311F0662319F40E94780102C084
:100370000E948B01C530D10571F4C80160E177E2BC
:100380000E94A409CB01C09690931A02809319028F
:100390000E94530103C0C430D105B9F4C80168EE0E
:1003A00073E00E94A409CB0170932502609324029C
:1003B0006AE070E00E94A409C09690934002809386
:1003C0003F020E94530181E001C080E0C330D105AB
:1003D00011F08130B1F4C80164E670E00E94A40914
:1003E000CB0170932502609324026AE070E00E94C2
:1003F000A409C09690933A02809339020E94530157
:1004000081E0C230D10511F08130B1F42AE030E052
:10041000C801B9010E94A409CB0170932502609321
:100420002402B9010E94A409C096909333028093DC
:1004300032020E94530181E0C130D10511F08130B8
:1004400061F4C8016AE070E00E94A409C09690932C
:100450003E0280933D020E945301C630D1051CF03C
:1004600085E40E945301DF91CF911F910F91089570
:1004700081B18F6081B982B1807F82B9EAE0F1E019
:10048000808188618083EBE0F1E0808188618083F6
:100490000895259A2D9A0895269A2E9A0895279AB6
:1004A0002F9A089584B1876084B985B1876085B932
:1004B000089587B1876F87B988B1807888B9089522
:1004C0003B9A439808956C98749A08956D98759A1C
:1004D000089510BA11BA10920701109208010895F8
:1004E000EAE0F1E0808188618083EBE0F1E08081E7
:1004F0008861808308950E9438020E9449020E9408
:100500004C020E944F020E9452020E9459020E9415
:1005100060020E9463020E9466020E9469020E94B9
:1005200070020895E1E2F1E010828FEF80932501DF
:1005300091E0909324011092290180932801109258
:100540002B0180932A0110922D0180932C0189EABE
:10055000809320018BE080830895E1E8F0E0108231
:100560008CEF8093850081E08093840093E09093EA
:1005700089008FEF8093880090938B0080938A008E
:1005800010928D0010928C0083EA8093800010926C
:1005900082008CE080830895E1EDF0E010821092FB
:1005A000D00086E08093D2001092D50087E080933F
:1005B000D40088E98083089583E58CBD1DBC1EBCF2
:1005C0000895EAE7F0E0108210927B0080E28093C9
:1005D0007C0080E880BF86E880830895F894EAE68E
:1005E000F0E0808182608083EC9A78940895F8949A
:1005F000EAE6F0E0808188608083ED9A789408953F
:100600001F920F920FB60F9211248F939F93809198
:1006100006029091070201969093070280930602CA
:100620009F918F910F900FBE0F901F9018951F9262
:100630000F920FB60F9211248F939F9380910A020D
:1006400090910B02019690930B0280930A029F9166
:100650008F910F900FBE0F901F901895883018F053
:1006600098E090937B008770806280937C0010926A
:100670001602EAE7F0E0808180648083808184FF55
:10068000FDCF80917900EAE7F0E09081906190835E
:1006900010927B00089528988EBD0DB407FEFDCF03
:1006A00086E69EE00197F1F7000080E58EBD0DB46F
:1006B00007FEFDCF8EB5289A089583E00E942E0391
:1006C0008093170282E00E942E0380931D0281E036
:1006D0000E942E0380931C0284E00E942E038093CC
:1006E0002D0285E00E942E038093180286E00E946E
:1006F0002E0380931F0287E00E942E038093350211
:1007000088E00E942E038093150285E00E944B032F
:100710008093440286E00E944B038093380287E076
:100720000E944B038093260289E00E942E0380934F
:1007300041028AE00E942E0380933C028BE00E94DB
:100740002E03809314028CE00E942E0380933602C5
:100750008DE00E942E038093290280E00E942E03E8
:1007600080933702089592B1907F8F70982B92B941
:10077000089586E00E94B303089589E00E94B303C0
:10078000089585E00E94B30308958AE00E94B303B0
:10079000089580E00E94B3030895439A0895439812
:1007A00008958093280160932A010895F8940E9487
:1007B0007B020E94CC020E94E1020E94AD020E94D4
:1007C00092020E94D6000E943E010E94DC020E941A
:1007D000EE020E94F7028AE080936A0080E38DBBFC
:1007E000789408951F920F920FB60F920BB60F9246
:1007F00011241F932F933F934F935F936F937F9396
:100800008F939F93AF93BF93CF93DF93EF93FF9318
:10081000D091D600CD2FC07F1D2F1F708091100268
:10082000909111028130910519F5D0932A0280919F
:100830000102909102028130910549F4D0931B028C
:1008400082E090E0909302028093010235C18230F1
:10085000910509F031C1D093340210921102109227
:10086000100281E090E0909313028093120224C161
:10087000D83319F40E94B9030AC0D23319F40E9484
:10088000BD030AC0D43319F40E94C5030AC0D6338D
:1008900019F40E94C10312C0D53319F40E94C90390
:1008A00014C0D23759F480910A0290910B028093C0
:1008B0000802909309028093D60014C0D33729F41C
:1008C000809109028093D60013C0D93759F48091E2
:1008D0000602909107028093040290930502809390
:1008E000D60006C0DA3721F4809105028093D60045
:1008F000C03819F410930D0221C0C039D1F4912FE2
:100900009295907F80910D02890F80930D0286361B
:1009100020F085E680930D0205C0853118F485E14D
:1009200080930D021092890080910D0280938800BF
:1009300005C0C03A19F410930C021AC0C03BC1F4B0
:100940001295107F80910C02180F10930C0216362E
:1009500020F085E680930C0205C0153118F485E17E
:1009600080930C0210928B0080910C0280938A007D
:10097000D43429F480912D028093D6000EC0D53452
:1009800029F4809118028093D6000EC0D63429F441
:1009900080911F028093D6000EC0D73429F4809135
:1009A00035028093D6000EC0D83429F48091150208
:1009B0008093D6000EC0D93429F4809144028093EC
:1009C000D6000EC0DA3429F4809138028093D60024
:1009D0000EC0DB3429F4809126028093D6000EC02D
:1009E000D13529F4809137028093D6000EC0DE34D1
:1009F00029F4809114028093D6000EC0DD3429F4CE
:100A000080913C028093D6000EC0D33429F48091AB
:100A100017028093D6000EC0D23429F480911D02B3
:100A20008093D6000EC0D13429F480911C028093AB
:100A3000D6000EC0DF3429F4809136028093D600B0
:100A40000EC0DC3429F4809141028093D6000EC0A0
:100A5000D03529F4809129028093D6000CC0DB3672
:100A600029F4809100028093D6000AC0D73319F48C
:100A70000E94CD0323C0D93319F40E94CF031EC0B6
:100A8000D235E1F481E090E090931102809310025E
:100A900080911202909113028130910579F4809136
:100AA0001B02609134020E94D1030E94B90310928C
:100AB00013021092120202C0D2E5E4CEFF91EF9130
:100AC000DF91CF91BF91AF919F918F917F916F9166
:100AD0005F914F913F912F911F910F900BBE0F90FF
:100AE0000FBE0F901F901895CF93DF93D82FC62F6E
:100AF000842F0E942E03482F809328028D2F6C2F65
:100B000050E023E030E00E94AB01DF91CF910895E7
:100B10000F931F93682F70E080E090E00E944E07D3
:100B20002FEE39EC43E95FE30E943F08B62FA72F71
:100B3000382F292F60E070E080E89FE3422F0B2FD1
:100B40001A2F232F342FA90198010E94B5062AE9F4
:100B500039EF4EE255E40E94DC0720E030E040E24D
:100B600051E40E94DC070E941D07882777FD8095CD
:100B7000982F0E9450070E941D07862F972F23E071
:100B80008132920710F080E293E01F910F91089557
:100B90000E94D603C4E6D0E00E945D0380E00E947C
:100BA0002E03682F70E080E090E00E944E07DC0189
:100BB000CB018093200290932102A0932202B09354
:100BC000230280E00E942E0390E08C9FB0018D9F55
:100BD000700D9C9F700D1124882777FD8095982FAC
:100BE0000E9450072DE335ED41EA5DE30E94DC07EA
:100BF00023E333E343E35FE30E945106262F372FBD
:100C0000F82FE92F462F572F682F792F40932E0268
:100C100050932F026093300270933102822F932FF2
:100C2000AF2FBE2FBC01CD010E9422078B019C017A
:100C300081E061E0A80124E030E00E94AB0181E0A6
:100C400066E045E00E94740581E06AE046E00E94AB
:100C5000740581E06EE047E00E94740582E062E086
:100C600043E00E94740582E066E042E00E94740561
:100C700082E06AE041E00E9474058BE00E942E034E
:100C800080933B020E948805AC01909343028093BD
:100C9000420282E06EE023E030E00E94AB017CCFB4
:100CA0005058BB27AA270ED04DC13ED130F043D1BA
:100CB00020F031F49F3F11F41EF433C10EF4E0959F
:100CC000E7FB29C1E92F4FD180F3BA1762077307F9
:100CD0008407950718F071F49EF567C10EF4E0954E
:100CE0000B2EBA2FA02D0B01B90190010C01CA01E6
:100CF000A0011124FF27591B99F0593F50F4503E91
:100D000068F11A16F040A22F232F342F4427585F82
:100D1000F3CF469537952795A795F0405395C9F79A
:100D20007EF41F16BA0B620B730B840BBAF0915052
:100D3000A1F0FF0FBB1F661F771F881FC2F70EC0F1
:100D4000BA0F621F731F841F48F4879577956795C4
:100D5000B795F7959E3F08F0B3CF9395880F08F0AD
:100D60009927EE0F9795879508950CD0EBC0E3D0A7
:100D700040F0DAD030F021F45F3F19F0CCC05111CF
:100D800015C1CFC0F0D098F39923C9F35523B1F31F
:100D9000951B550BBB27AA2762177307840738F0EA
:100DA0009F5F5F4F220F331F441FAA1FA9F333D049
:100DB0000E2E3AF0E0E830D091505040E695001CFD
:100DC000CAF729D0FE2F27D0660F771F881FBB1FB9
:100DD000261737074807AB07B0E809F0BB0B802D93
:100DE000BF01FF2793585F4F2AF09E3F510568F0DF
:100DF00092C0DCC05F3FECF3983EDCF386957795BC
:100E00006795B795F7959F5FC9F7880F911D9695E0
:100E1000879597F90895E1E0660F771F881FBB1F3C
:100E2000621773078407BA0720F0621B730B840BE9
:100E3000BA0BEE1F88F7E095089504D06894B111BD
:100E4000B5C0089598D088F09F5790F0B92F992792
:100E5000B751A0F0D1F0660F771F881F991F1AF0C5
:100E6000BA95C9F712C0B13081F09FD0B1E00895B2
:100E70009CC0672F782F8827B85F39F0B93FCCF333
:100E8000869577956795B395D9F73EF490958095BB
:100E9000709561957F4F8F4F9F4F0895E89409C0DB
:100EA00097FB3EF490958095709561957F4F8F4F9D
:100EB0009F4F9923A9F0F92F96E9BB279395F695B3
:100EC000879577956795B795F111F8CFFAF4BB0F31
:100ED00011F460FF1BC06F5F7F4F8F4F9F4F16C095
:100EE000882311F096E911C0772321F09EE8872F1F
:100EF000762F05C0662371F096E8862F70E060E0DB
:100F00002AF09A95660F771F881FDAF7880F969553
:100F1000879597F9089597F99F6780E870E060E0FA
:100F200008959FEF80EC089500240A941616170682
:100F300018060906089500240A94121613061406CA
:100F400005060895092E0394000C11F4882352F02D
:100F5000BB0F40F4BF2B11F460FF04C06F5F7F4FE5
:100F60008F4F9F4F089557FD9058440F551F59F0CC
:100F70005F3F71F04795880F97FB991F61F09F3F86
:100F800079F087950895121613061406551FF2CFAF
:100F90004695F1DF08C0161617061806991FF1CFFF
:100FA00086957105610508940895E894BB27662726
:100FB0007727CB0197F908950BD0C4CFB5DF28F080
:100FC000BADF18F0952309F0A6CFABCF1124EECFEE
:100FD000CADFA0F3959FD1F3950F50E0551F629F94
:100FE000F001729FBB27F00DB11D639FAA27F00D82
:100FF000B11DAA1F649F6627B00DA11D661F829FA9
:101000002227B00DA11D621F739FB00DA11D621F8D
:10101000839FA00D611D221F749F3327A00D611DAA
:10102000231F849F600D211D822F762F6A2F11248C
:101030009F5750408AF0E1F088234AF0EE0FFF1FDF
:10104000BB1F661F771F881F91505040A9F79E3F16
:10105000510570F060CFAACF5F3FECF3983EDCF310
:10106000869577956795B795F795E7959F5FC1F753
:10107000FE2B880F911D9695879597F90895FA0193
:10108000EE0FFF1F30962105310599F161157105AD
:1010900061F48038BFE39B0749F16894903881057B
:1010A00061F08038BFEF9B0741F0992342F5FF3F85
:1010B000E1053105210511F1E8940894E795D9017E
:1010C000AA2329F4AB2FBE2FF85FD0F310C0FF5F27
:1010D00070F4A695E0F7F73950F019F0FF3A38F4BC
:1010E0009F779F930CD00F9007FC905808953EF087
:1010F00018CF60E070E080E89FE308954FE79F77A6
:101100005F934F933F932F939ED02F913F914F9199
:101110005F9152DF05C019F40EF0FDCE46CF01CF2E
:101120002ADFC8F39638C0F707F80F92E8942BE34C
:101130003AEA48EB5FE74EDF0F920F920F924DB7FE
:101140005EB70F92C0D0E4EEF0E016D04F915F9101
:10115000EF91FF91E595EE1FFF1F49F0FE57E06804
:101160004427EE0F441FFA95E1F74195550B32D015
:101170000F9007FE26C00895DF93CF931F930F9320
:10118000FF92EF92DF927B018C01689405C0DA2E0A
:10119000EF011EDFFE01E894A5912591359145915F
:1011A0005591AEF3EF018EDDFE019701A801DA94AF
:1011B00079F7DF90EF90FF900F911F91CF91DF9122
:1011C00008959B01AC0160E070E080E89FE3CDCD25
:1011D000A2CEACC0D0DEE8F39923D9F3940F511D11
:1011E000BBF39150504094F059F0882332F0660FD1
:1011F000771F881F91505040C1F79E3F510544F71B
:10120000880F911D9695879597F908955F3FACF0EB
:10121000983E9CF0BB27869577956795B79508F41F
:10122000B1609395C1F7BB0F58F711F460FFE8CF99
:101230006F5F7F4F8F4F9F4FE3CFB8CE0EF076C0DA
:1012400070CE689468CE97DEC8F39923D1F3C6F3C5
:10125000DF93CF931F930F93FF92C92FDD2788232E
:101260002AF02197660F771F881FDAF720E030E019
:1012700040E85FEB9FE3883920F0803E30F0219614
:101280008F770FDDECE0F1E003C00BDDE9E3F1E087
:1012900073DF8B01BE01EC01FB2E6F577109759551
:1012A000771F880B990BFCDD28E132E741E35FE310
:1012B0008FDEAF2D9801AE01FF900F911F91CF915E
:1012C000DF9100DD3FCEFA01DC01AA0FBB1F9B01BD
:1012D000AC01BF5728F422273327442750781FC07A
:1012E000B75188F4AB2F0024469537952795011CFC
:1012F000A395D2F3002069F0220F331F441FB3954A
:10130000DAF30DD0CDCC61307105A0E88A07B9467B
:1013100030F49B01AC0166277727882790783096B8
:1013200021F0208331834283538308959F3F31F01E
:10133000915020F4879577956795B795880F911D03
:101340009695879597F90895AA1BBB1B51E107C095
:10135000AA1FBB1FA617B70710F0A61BB70B881F45
:10136000991F5A95A9F780959095BC01CD010895D4
:04137000F894FFCF1F
:04137400050100006F
:00000001FF
