:100000000C94B3000C94D4000C94D4000C94D40041
:100010000C94D4000C9483020C945E020C94D400D3
:100020000C94D4000C94D4000C94D4000C94D40000
:100030000C94D4000C94D4000C94D4000C94D400F0
:100040000C94D4000C94D4000C94D4000C94D400E0
:100050000C94D4000C94D4000C94D4000C94D400D0
:100060000C94D4000C94D4000C94D4000C94D400C0
:100070000C94D4000C94D4000C94D4000C94D400B0
:100080000C94D4000C94D4000C94D4000C94D400A0
:100090000C94D4000C94D4000C94D4000C94D40090
:1000A0000C94D4000C94D4000C94D4000C94D40080
:1000B0000C94D4000C94D4000C94D4000C94D40070
:1000C0000C94D4000C94D4000C94D4000C9403072A
:1000D0000C94D4000C94D4000C94D4000C94D40050
:1000E0000C94D40007634236B79BD8A71A396856D8
:1000F00018AEBAAB558C1D3CB7CC5763BD6DEDFD4A
:10010000753EF6177231BF000000803F0800000006
:10011000BE922449123EABAAAA2ABECDCCCC4C3EFC
:1001200000000080BEABAAAAAA3E00000000BF00EB
:100130000000803F0000000000084178D3BB4387E7
:10014000D1133D190E3CC3BD4282AD2B3E68EC82FB
:1001500076BED98FE1A93E4C80EFFFBE01C4FF7F80
:100160003F000000000011241FBECFEFD1E2DEBF30
:10017000CDBF00E00CBF12E0A0E0B2E0ECEAFFE18E
:1001800000E00BBF02C007900D92A031B107D9F774
:1001900012E0A0E1B2E001C01D92AF38B107E1F773
:1001A0000E94FA0A0C94D40F0C940000259A2D9A00
:1001B0000895269A2E9A0895279A2F9A089586E6EA
:1001C0009EE00197F1F700004098419880E388B9DC
:1001D000429AEFEFF7E43197F1F700C00000429840
:1001E000E6E6FEE03197F1F700004098419888B9C3
:1001F000429AEFEFF7E43197F1F700C00000429820
:10020000E6E6FEE03197F1F700004098419888B9A2
:10021000429A8FEF97E40197F1F700C000004298EF
:10022000E6E6FEE03197F1F700004098419880E261
:1002300088B9429A8FEF97E40197F1F700C0000068
:100240004298089598B19F7098B998B1282F207F4F
:10025000922B98B940984198429AEFEFF7E4319782
:10026000F1F700C00000429898B19F7098B998B11A
:100270008295807F892B88B940984198429A8FEF68
:1002800097E40197F1F700C000004298089586E6D0
:100290009EE00197F1F7000088E20E94220181E0D0
:1002A0000E94220186E00E9422018EE00E9422012B
:1002B00080E80E942201089598B19F7098B998B182
:1002C000282F207F922B98B9409A4198429AEFEFBD
:1002D000F7E43197F1F700C00000429898B19F70A1
:1002E00098B998B18295807F892B88B9409A4198B6
:1002F000429A8FEF97E40197F1F700C0000042980F
:10030000089580E80E9422010895CF93DF93EC01C5
:100310008881882331F021960E945C01899188238D
:10032000D9F7DF91CF910895823079F0833018F4B6
:100330008130C9F405C0833069F08430A1F40FC066
:10034000862F81580E9422010895862F81540E9491
:1003500022010895862F8D560E9422010895862F2E
:100360008D520E94220108950F931F93CF93DF9324
:100370008A01E901882311F0662319F40E948101A2
:1003800002C00E949401C530D10571F4C80160E13A
:1003900077E20E94C00FCB01C096909355028093E4
:1003A00054020E945C0103C0C430D105B9F4C801F5
:1003B00068EE73E00E94C00FCB01709362026093FD
:1003C00061026AE070E00E94C00FC09690938702BD
:1003D000809386020E945C0181E001C080E0C3300E
:1003E000D10511F08130B1F4C80164E670E00E94DB
:1003F000C00FCB0170936202609361026AE070E00B
:100400000E94C00FC09690937F0280937E020E944C
:100410005C0181E0C230D10511F08130B1F42AE0F5
:1004200030E0C801B9010E94C00FCB017093620295
:1004300060936102B9010E94C00FC096909372024E
:10044000809371020E945C0181E0C130D10511F0FE
:10045000813061F4C8016AE070E00E94C00FC0966C
:1004600090938502809384020E945C01C630D1057E
:100470001CF085E40E945C01DF91CF911F910F91E8
:1004800008956C98749A08956D98759A08950E94CD
:1004900041020E9444020895F894EAE6F0E0808167
:1004A00082608083EC9A78940895F894EAE6F0E00C
:1004B000808188608083ED9A789408951F920F92CE
:1004C0000FB60F9211248F939F93AF93BF93809198
:1004D0001C0290911D02A0911E02B0911F02019674
:1004E000A11DB11D80931C0290931D02A0931E02BA
:1004F000B0931F02BF91AF919F918F910F900FBE4C
:100500000F901F9018951F920F920FB60F92112403
:100510008F939F93AF93BF9380912002909121027C
:10052000A0912202B09123020196A11DB11D8093DA
:10053000200290932102A0932202B0932302BF9144
:10054000AF919F918F910F900FBE0F901F901895B4
:100550000F931F93CF93BC0180E090E00E94420D67
:1005600028E431EE42E850E40E94A90C0E94160DE6
:10057000DC01CB01A0E0B0E010921C0210921D0241
:1005800010921E0210921F0210922002109221025D
:100590001092220210922302F1E0C0E040911C026E
:1005A00050911D0260911E0270911F020091200265
:1005B000109121022091220230912302EF2F48173F
:1005C00059076A077B0708F4EC2FEE2349F44F2FF5
:1005D000081719072A073B0708F44C2F4423F1F2A8
:1005E0000E949E06CF911F910F910895BC0180E05B
:1005F00090E00E94420D25EE30ED4AEA50E40E9460
:10060000A90C0E94160D462F572F682F792F109294
:100610001C0210921D0210921E0210921F02809165
:100620001C0290911D02A0911E02B0911F0248175A
:1006300059076A077B0798F70E949E0608950E9453
:10064000D6000E94D9000E94DC0008951092890013
:10065000682F70E080E090E00E94420D2BE734E1CB
:100660004EEE5FE30E94A90C20E030E04CE052E443
:100670000E94410C0E94160D60938800089510920C
:100680008B00682F70E080E090E00E94420D2BE725
:1006900034E14EEE5FE30E94A90C20E030E04CE034
:1006A00052E40E94410C0E94160D60938A00089546
:1006B00010928D00682F70E080E090E00E94420D63
:1006C0002BE734E14EEE5FE30E94A90C20E030E01E
:1006D0004CE052E40E94410C0E94160D60938C0085
:1006E000089583E0809389008FEF809388000895B8
:1006F00083E080938B008FEF80938A00089583E0DE
:1007000080938D008FEF80938C0008958F929F923D
:10071000AF92BF92DF92EF92FF920F931F93CF930E
:10072000DF93C82F70E080E090E00E94420D2BE73D
:1007300034E14EEE5FE30E94A90C20E030E04CE093
:1007400052E40E94410C062FA72E882ED62EE72EAB
:10075000F82ED92F6C2F70E080E090E00E94420DBF
:100760002BE734E14EEE5FE30E94A90C20E030E07D
:100770004CE052E40E94410C0E94160DC62F70E01E
:1007800080E090E00E94440D1A2D282D3D2FA901F4
:1007900098010E94F40D882334F10F2EF9E8AF2E52
:1007A000BB24F02D0F2EF8E88F2E9924F02DD501C3
:1007B0001C92F401C08386E696EEA0E08150904042
:1007C000A040E1F7C1506C2F70E080E090E00E9403
:1007D000440D0D2D1E2D2F2D3D2FA90198010E9496
:1007E000F40D882324F7DF91CF911F910F91FF9093
:1007F000EF90DF90BF90AF909F908F9008958F9271
:100800009F92AF92BF92DF92EF92FF920F931F934E
:10081000CF93DF93C82F70E080E090E00E94420DFC
:100820002BE734E14EEE5FE30E94A90C20E030E0BC
:100830004CE052E40E94410C062FA72E882ED62EA3
:10084000E72EF82ED92F6C2F70E080E090E00E9408
:10085000420D2BE734E14EEE5FE30E94A90C20E04D
:1008600030E04CE052E40E94410C0E94160DC62F6D
:1008700070E080E090E00E94440D1A2D282D3D2F5D
:10088000A90198010E94A50C181634F10F2EF9E861
:10089000AF2EBB24F02D0F2EF8E88F2E9924F02DCB
:1008A000D5011C92F401C08386E696EEA0E081504B
:1008B0009040A040E1F7CF5F6C2F70E080E090E0C7
:1008C0000E94440D0D2D1E2D2F2D3D2FA9019801A5
:1008D0000E94A50C181624F7DF91CF911F910F915C
:1008E000FF90EF90DF90BF90AF909F908F90089512
:1008F0008F929F92AF92BF92DF92EF92FF920F93EF
:100900001F93CF93DF93C82F70E080E090E00E94A8
:10091000420D2BE734E14EEE5FE30E94A90C20E08C
:1009200030E04CE052E40E94410C062FA72E882EA6
:10093000D62EE72EF82ED92F6C2F70E080E090E0B5
:100940000E94420D2BE734E14EEE5FE30E94A90CBA
:1009500020E030E04CE052E40E94410C0E94160D71
:10096000C62F70E080E090E00E94440D1A2D282DE3
:100970003D2FA90198010E94F40D882334F10F2E18
:10098000FBE8AF2EBB24F02D0F2EFAE88F2E992412
:10099000F02DD5011C92F401C08386E696EEA0E00E
:1009A00081509040A040E1F7C1506C2F70E080E092
:1009B00090E00E94440D0D2D1E2D2F2D3D2FA901DD
:1009C00098010E94F40D882324F7DF91CF911F91A5
:1009D0000F91FF90EF90DF90BF90AF909F908F901E
:1009E00008958F929F92AF92BF92DF92EF92FF9203
:1009F0000F931F93CF93DF93C82F70E080E090E0B8
:100A00000E94420D2BE734E14EEE5FE30E94A90CF9
:100A100020E030E04CE052E40E94410C062FA72E6B
:100A2000882ED62EE72EF82ED92F6C2F70E080E07E
:100A300090E00E94420D2BE734E14EEE5FE30E940E
:100A4000A90C20E030E04CE052E40E94410C0E94EE
:100A5000160DC62F70E080E090E00E94440D1A2D24
:100A6000282D3D2FA90198010E94A50C181634F1DC
:100A70000F2EFBE8AF2EBB24F02D0F2EFAE88F2EA1
:100A80009924F02DD5011C92F401C08386E696EEE0
:100A9000A0E081509040A040E1F7CF5F6C2F70E064
:100AA00080E090E00E94440D0D2D1E2D2F2D3D2F36
:100AB000A90198010E94A50C181624F7DF91CF9187
:100AC0001F910F91FF90EF90DF90BF90AF909F909C
:100AD0008F90089581B18F6081B982B1807F82B992
:100AE000EAE0F1E0808188618083EBE0F1E08081E1
:100AF00088618083089584B1876084B985B18760F7
:100B000085B9089587B1876F87B988B1807888B92A
:100B100008953B9A4398089510BA11BA10920701AC
:100B2000109208010895EAE0F1E0808188618083F5
:100B3000EBE0F1E080818861808308950E946A057E
:100B40000E94D6000E94D9000E94DC000E947B0512
:100B50000E9482050E9489050E9441020E9444026F
:100B60000E948C050E9493050E9447020895E1E2CD
:100B7000F1E010828FEF8093250191E090932401A2
:100B8000109229018093280110922B0180932A0151
:100B900010922D0180932C0189EA809320018BE033
:100BA00080830895E1E8F0E010828CEF8093850067
:100BB00081E08093840093E0909389008FEF80938D
:100BC000880090938B0080938A0010928D00109281
:100BD0008C0083EA80938000109282008CE08083F6
:100BE0000895E1EDF0E010821092D00086E080934D
:100BF000D2001092D50087E08093D40088E98083EA
:100C0000089583E58CBD1DBC1EBC0895EAE7F0E0A5
:100C1000108210927B0080E280937C0080E880BF8D
:100C200086E880830895883018F098E090937B00E0
:100C30008770806280937C0010924E02EAE7F0E0B9
:100C4000808180648083808184FFFDCF80917900E2
:100C5000EAE7F0E090819061908310927B00089524
:100C600028988EBD0DB407FEFDCF86E69EE0019765
:100C7000F1F7000080E58EBD0DB407FEFDCF8EB507
:100C8000289A089583E00E94130680934F0282E021
:100C90000E94130680935A0281E00E9413068093FB
:100CA000590284E00E94130680936C0285E00E9442
:100CB00013068093530286E00E94130680935C0221
:100CC00087E00E9413068093740288E00E94130656
:100CD00080934D0285E00E94300680938E0286E06C
:100CE0000E9430068093790287E00E94300680934C
:100CF000630289E00E94130680938B028AE00E94BF
:100D00001306809383028BE00E94130680934C02AB
:100D10008CE00E941306809377028DE00E941306F8
:100D20008093660280E00E94130680937802089503
:100D300092B1907F8F70982B92B9089580E00E94B5
:100D40009806089586E00E949806089589E00E941A
:100D50009806089585E00E94980608958AE00E940A
:100D600098060895439A089543980895809328011A
:100D700060932A010895CF93DF93EC010E94A206AD
:100D8000CE010E94F602DF91CF910895CF93DF93B9
:100D9000EC010E94A606CE010E94F602DF91CF91DF
:100DA0000895CF93DF93EC010E94AA06CE010E9422
:100DB000A802DF91CF910895CF93DF93EC010E94B9
:100DC000AE06CE010E94A802DF91CF910895F8945B
:100DD0000E949E050E94F1050E9406060E94D2050F
:100DE0000E94B7050E94DF000E9447010E94010691
:100DF0000E944C020E9455028AE080936A0080E3C0
:100E00008DBB789408951F920F920FB60F920BB678
:100E10000F9211242F933F934F935F936F937F9380
:100E20008F939F93AF93BF93CF93DF93EF93FF93F2
:100E3000C091D60080914602909147028130910581
:100E400079F5C093670280910C0290910D02813078
:100E5000910569F4C093580280910C0290910D02A3
:100E6000019690930D0280930C02C0E019C080910E
:100E70000C0290910D028230910591F4C09373029F
:100E8000109247021092460281E090E090930D028A
:100E900080930C02809158026C2F0E94B606C0E02D
:100EA00080914402909145028130910509F042C041
:100EB000C093500280910A0290910B0281309105FB
:100EC00079F4C0937C0210927D0280910A02909185
:100ED0000B02019690930B0280930A02C0E02AC095
:100EE00080910A0290910B028230910519F58C2FA6
:100EF00090E0909369028093680220917C02309187
:100F00007D02D22FCC27C21BD30B8C0F9D1F909339
:100F100049028093480281E090E090930B02809315
:100F20000A0290934302809342021092450210926B
:100F30004402C0E0809140029091410281309105CD
:100F400009F042C0C093500280910A0290910B02B6
:100F50008130910579F4C0937C0210927D028091DA
:100F60000A0290910B02019690930B0280930A0261
:100F7000C0E02AC080910A0290910B028230910554
:100F800019F58C2F90E0909369028093680220916C
:100F90007C0230917D02D22FCC27C21BD30B8C0F49
:100FA0009D1F909349028093480281E090E09093C6
:100FB0000B0280930A0290933F0280933E021092AC
:100FC000410210924002C0E080913C0290913D02AB
:100FD0008130910509F041C0C09350028091080210
:100FE000909109028130910579F4C09375021092B5
:100FF000760280910802909109020196909309026D
:1010000080930802C0E029C08091080290910902F3
:101010008230910511F54C2F50E050938A02409395
:1010200089028091750290917602382F2227281B21
:10103000390B420F531F50934B0240934A0281E0F9
:1010400090E0909309028093080290933B02809372
:101050003A0210923D0210923C0280913802909127
:1010600039028130910509F041C0C093500280914E
:101070000802909109028130910579F4C0937502BC
:101080001092760280910802909109020196909345
:10109000090280930802C0E029C080910802909163
:1010A00009028230910511F54C2F50E050938A02CD
:1010B000409389028091750290917602382F222701
:1010C000281B390B420F531F50934B0240934A0287
:1010D00081E090E090930902809308029093370298
:1010E00080933602109239021092380280913402B5
:1010F000909135028130910569F4C093500281E0EE
:1011000090E09093070280930602109235021092AD
:101110003402C0E080913202909133028130910517
:1011200069F4C093500281E090E0909305028093AF
:1011300004021092330210923202C0E08091300219
:10114000909131028130910569F4C093500281E0A1
:1011500090E0909303028093020210923102109269
:101160003002C0E080912E0290912F0281309105D3
:1011700009F045C0C0935002809100029091010295
:101180008130910579F4D0E0D0932702C0932602F4
:101190008091000290910102019690930102809348
:1011A0000002BDC180910002909101028230910540
:1011B00081F48C2F90E090932502809324028091FB
:1011C0000002909101020196909301028093000227
:1011D00016C080910002909101028330910579F44C
:1011E00081E090E090932D0280932C029093010275
:1011F0008093000210922F0210922E0290C1C833E9
:1012000019F40E94A2060AC0C23319F40E94A6066D
:101210000AC0C43319F40E94AE060AC0C63319F4DA
:101220000E94AA0612C0C53319F40E949E0614C07B
:10123000C23759F4809116029091170280931402DC
:10124000909315028093D60014C0C33729F480917F
:1012500015028093D60014C0C93759F48091120248
:101260009091130280931002909311028093D60004
:10127000EDC0CA3729F4809111028093D600EDC0E9
:10128000C43509F0E3C088ED8093D10089E58093EF
:10129000D600E0EDF0E0808186FFFDCF80916C020A
:1012A0008093D600E0EDF0E08081806480838081CF
:1012B00086FFFDCF809153028093D600E0EDF0E0F1
:1012C000808180648083808186FFFDCF80915C0275
:1012D0008093D600E0EDF0E080818064808380819F
:1012E00086FFFDCF809174028093D600E0EDF0E0A0
:1012F000808180648083808186FFFDCF80914D0254
:101300008093D600E0EDF0E080818064808380816E
:1013100086FFFDCF80918E028093D600E0EDF0E055
:10132000808180648083808186FFFDCF80917902F7
:101330008093D600E0EDF0E080818064808380813E
:1013400086FFFDCF809163028093D600E0EDF0E050
:10135000808180648083808186FFFDCF80918B02B5
:101360008093D600E0EDF0E080818064808380810E
:1013700086FFFDCF809183028093D600E0EDF0E000
:10138000808180648083808186FFFDCF80914C02C4
:101390008093D600E0EDF0E08081806480838081DE
:1013A00086FFFDCF809177028093D600E0EDF0E0DC
:1013B000808180648083808186FFFDCF809166027A
:1013C0008093D600E0EDF0E08081806480838081AE
:1013D00086FFFDCF80914F028093D600E0EDF0E0D4
:1013E000808180648083808186FFFDCF80915A0256
:1013F0008093D600E0EDF0E080818064808380817E
:1014000086FFFDCF809159028093D600E0EDF0E099
:10141000808180648083808186FFFDCF8091780207
:101420008093D600E0EDF0E080818064808380814D
:1014300086FFFDCF8AE58093D600E0EDF0E0808165
:101440008064808388E98093D1000CC0CB3629F476
:1014500080910E028093D6000AC0C73319F40E940F
:10146000B2060EC0C93319F40E94B40610C0C235CA
:1014700039F481E090E0909347028093460210C0D7
:10148000C33529F48FEF6FEF0E94B60612C0C53541
:1014900039F481E090E0909345028093440212C0B9
:1014A000C63539F481E090E0909341028093400288
:1014B00012C0C73539F481E090E090933D028093EB
:1014C0003C0212C0C83539F481E090E090933902B3
:1014D0008093380212C0C03839F481E090E09093D4
:1014E00035028093340212C0C13839F481E090E0B3
:1014F000909333028093320214C0C23839F481E0F1
:1015000090E090933102809330020BC0C33849F4CD
:1015100081E090E090932F0280932E0202C0C0E001
:1015200078CEFF91EF91DF91CF91BF91AF919F91D5
:101530008F917F916F915F914F913F912F910F907C
:101540000BBE0F900FBE0F901F901895CF93DF9397
:10155000D82FC62F842F0E941306482F8093650230
:101560008D2F6C2F50E023E030E00E94B401DF911A
:10157000CF9108950F931F93682F70E080E090E063
:101580000E94420D2FEE39EC43E95FE30E945B0EAF
:10159000B62FA72F382F292F60E070E080E89FE357
:1015A000422F0B2F1A2F232F342FA90198010E94AD
:1015B000A90C2AE939EF4EE255E40E94F80D20E02B
:1015C00030E040E251E40E94F80D0E94110D88279E
:1015D00077FD8095982F0E94440D0E94110D862F53
:1015E000972F23E08132920710F080E293E01F9161
:1015F0000F9108950E94E706809142029091430264
:101600008130910551F480914802909149020E94E5
:10161000BB06109243021092420280913E029091CA
:101620003F028130910551F4809148029091490226
:101630000E94C60610923F0210923E0280913A022A
:1016400090913B028130910551F480914A02909132
:101650004B020E94DC0610923B0210923A028091EB
:101660003602909137028130910551F480914A02FF
:1016700090914B020E94D1061092370210923602CE
:10168000809106029091070281309105D1F58091F9
:10169000500290E0909329028093280210928102D8
:1016A00010928002809128029091290280E090E0BF
:1016B0000E94260389E999E5A1E081509040A0406D
:1016C000E1F7000080918002909181020196909351
:1016D00081028093800220912802309129022817EC
:1016E000390730F78FEF9FEFACE281509040A04078
:1016F000E1F700C000000E947103109207021092EF
:101700000602809104029091050281309105D1F585
:101710008091500290E090932902809328021092C9
:10172000810210928002809128029091290280E02B
:1017300090E00E943F0389E999E5A1E08150904043
:10174000A040E1F700008091800290918102019613
:101750009093810280938002209128023091290287
:101760002817390730F78FEF9FEFACE28150904098
:10177000A040E1F700C000000E947803109205022B
:10178000109204028091020290910302813091052F
:10179000D1F58091500290E0909329028093280225
:1017A0001092810210928002809128029091290269
:1017B00080E090E00E94580389E999E5A1E081501A
:1017C0009040A040E1F7000080918002909181025A
:1017D000019690938102809380022091280230919B
:1017E00029022817390730F78FEF9FEFACE28150BD
:1017F0009040A040E1F700C000000E947F031092DB
:1018000003021092020280912C0290912D028130ED
:10181000910591F480912602909127026091240213
:10182000709125020E949401809150020E945C01F7
:1018300010922D0210922C020E94420681E066E076
:1018400045E00E94A60A81E06AE046E00E94A60AFE
:1018500081E06EE047E00E94A60A8BE00E9413063A
:10186000809382020E94BA0AAC0190938D02809309
:101870008C0282E06EE023E030E00E94B401BCCE36
:101880005058BB27AA270ED075C166D130F06BD156
:1018900020F031F49F3F11F41EF45BC10EF4E0958B
:1018A000E7FB51C1E92F77D180F3BA1762077307BD
:1018B0008407950718F071F49EF58FC10EF4E0953A
:1018C0000B2EBA2FA02D0B01B90190010C01CA01FA
:1018D000A0011124FF27591B99F0593F50F4503EA5
:1018E00068F11A16F040A22F232F342F4427585F97
:1018F000F3CF469537952795A795F0405395C9F7AF
:101900007EF41F16BA0B620B730B840BBAF0915066
:10191000A1F0FF0FBB1F661F771F881FC2F70EC005
:10192000BA0F621F731F841F48F4879577956795D8
:10193000B795F7959E3F08F0B3CF9395880F08F0C1
:101940009927EE0F979587950895D9D008F481E0EF
:1019500008950CD00FC107D140F0FED030F021F433
:101960005F3F19F0F0C0511139C1F3C014D198F3A1
:101970009923C9F35523B1F3951B550BBB27AA2710
:1019800062177307840738F09F5F5F4F220F331F82
:10199000441FAA1FA9F333D00E2E3AF0E0E830D04E
:1019A00091505040E695001CCAF729D0FE2F27D051
:1019B000660F771F881FBB1F261737074807AB071F
:1019C000B0E809F0BB0B802DBF01FF2793585F4F94
:1019D0002AF09E3F510568F0B6C000C15F3FECF3AE
:1019E000983EDCF3869577956795B795F7959F5F59
:1019F000C9F7880F911D9695879597F90895E1E0AD
:101A0000660F771F881FBB1F621773078407BA070B
:101A100020F0621B730B840BBA0BEE1F88F7E09566
:101A2000089504D06894B111D9C00895BCD088F04D
:101A30009F5790F0B92F9927B751A0F0D1F0660FBA
:101A4000771F881F991F1AF0BA95C9F712C0B130D5
:101A500081F0C3D0B1E00895C0C0672F782F8827E8
:101A6000B85F39F0B93FCCF3869577956795B39514
:101A7000D9F73EF490958095709561957F4F8F4F83
:101A80009F4F0895E89409C097FB3EF49095809588
:101A9000709561957F4F8F4F9F4F9923A9F0F92F34
:101AA00096E9BB279395F695879577956795B795B2
:101AB000F111F8CFFAF4BB0F11F460FF1BC06F5F98
:101AC0007F4F8F4F9F4F16C0882311F096E911C0AA
:101AD000772321F09EE8872F762F05C0662371F0CB
:101AE00096E8862F70E060E02AF09A95660F771FDF
:101AF000881FDAF7880F9695879597F90895990FBB
:101B00000008550FAA0BE0E8FEEF16161706E807C7
:101B1000F907C0F012161306E407F50798F0621BE8
:101B2000730B840B950B39F40A2661F0232B242BBD
:101B3000252B21F408950A2609F4A140A6958FEFDC
:101B4000811D811D089597F99F6780E870E060E02E
:101B500008959FEF80EC089500240A941616170646
:101B600018060906089500240A941216130614068E
:101B700005060895092E0394000C11F4882352F0F1
:101B8000BB0F40F4BF2B11F460FF04C06F5F7F4FA9
:101B90008F4F9F4F089557FD9058440F551F59F090
:101BA0005F3F71F04795880F97FB991F61F09F3F4A
:101BB00079F087950895121613061406551FF2CF73
:101BC0004695F1DF08C0161617061806991FF1CFC3
:101BD00086957105610508940895E894BB276627EA
:101BE0007727CB0197F908958ADF08F48FEF0895DE
:101BF0000BD0C0CFB1DF28F0B6DF18F0952309F085
:101C0000A2CFA7CF1124EACFC6DFA0F3959FD1F3CF
:101C1000950F50E0551F629FF001729FBB27F00D9A
:101C2000B11D639FAA27F00DB11DAA1F649F6627EF
:101C3000B00DA11D661F829F2227B00DA11D621F3E
:101C4000739FB00DA11D621F839FA00D611D221FF8
:101C5000749F3327A00D611D231F849F600D211DDC
:101C6000822F762F6A2F11249F5750408AF0E1F07F
:101C700088234AF0EE0FFF1FBB1F661F771F881FC8
:101C800091505040A9F79E3F510570F05CCFA6CF10
:101C90005F3FECF3983EDCF3869577956795B795B3
:101CA000F795E7959F5FC1F7FE2B880F911D9695DD
:101CB000879597F90895FA01EE0FFF1F30962105D9
:101CC000310599F16115710561F48038BFE39B0717
:101CD00049F168949038810561F08038BFEF9B0727
:101CE00041F0992342F5FF3FE1053105210511F14E
:101CF000E8940894E795D901AA2329F4AB2FBE2FC5
:101D0000F85FD0F310C0FF5F70F4A695E0F7F739E5
:101D100050F019F0FF3A38F49F779F930CD00F9052
:101D200007FC905808953EF014CF60E070E080E822
:101D30009FE308954FE79F775F934F933F932F93D0
:101D40009ED02F913F914F915F9152DF05C019F4C2
:101D50000EF0F9CE42CFFDCE26DFC8F39638C0F79D
:101D600007F80F92E8942BE33AEA48EB5FE74EDF7F
:101D70000F920F920F924DB75EB70F92C0D0E4EE64
:101D8000F0E016D04F915F91EF91FF91E595EE1F36
:101D9000FF1F49F0FE57E0684427EE0F441FFA95F5
:101DA000E1F74195550B32D00F9007FE26C00895FC
:101DB000DF93CF931F930F93FF92EF92DF927B01FC
:101DC0008C01689405C0DA2EEF011EDFFE01E89455
:101DD000A5912591359145915591AEF3EF0162DDC5
:101DE000FE019701A801DA9479F7DF90EF90FF9058
:101DF0000F911F91CF91DF9108959B01AC0160E09D
:101E000070E080E89FE3A5CD9ECEACC0CCDEE8F3C9
:101E10009923D9F3940F511DBBF39150504094F086
:101E200059F0882332F0660F771F881F9150504079
:101E3000C1F79E3F510544F7880F911D96958795F0
:101E400097F908955F3FACF0983E9CF0BB278695CC
:101E500077956795B79508F4B1609395C1F7BB0F77
:101E600058F711F460FFE8CF6F5F7F4F8F4F9F4FA0
:101E7000E3CFB4CE0EF076C06CCE689464CE93DE21
:101E8000C8F39923D1F3C6F3DF93CF931F930F9336
:101E9000FF92C92FDD2788232AF02197660F771F2D
:101EA000881FDAF720E030E040E85FEB9FE38839F5
:101EB00020F0803E30F021968F77E3DCECE0F1E01B
:101EC00003C0DFDCE9E3F1E073DF8B01BE01EC016D
:101ED000FB2E6F5771097595771F880B990BD4DD11
:101EE00028E132E741E35FE38FDEAF2D9801AE01D9
:101EF000FF900F911F91CF91DF91D4DC3BCEFA017F
:101F0000DC01AA0FBB1F9B01AC01BF5728F422279D
:101F10003327442750781FC0B75188F4AB2F0024D3
:101F2000469537952795011CA395D2F3002069F0BB
:101F3000220F331F441FB395DAF30DD0A1CC6130CB
:101F40007105A0E88A07B94630F49B01AC01662709
:101F5000772788279078309621F020833183428339
:101F6000538308959F3F31F0915020F487957795E2
:101F70006795B795880F911D9695879597F9089560
:101F8000AA1BBB1B51E107C0AA1FBB1FA617B7079F
:101F900010F0A61BB70B881F991F5A95A9F78095BB
:0C1FA0009095BC01CD010895F894FFCF8E
:101FAC000100010001000100010001000100050019
:00000001FF
